:100000000C945A000C9464000C9464000C946400EA
:100010000C9464000C9464000C9464000C946400D0
:100020000C9464000C9464000C9464000C946400C0
:100030000C9464000C9464000C9464000C946400B0
:100040000C9464000C9464000C9464000C946400A0
:100050000C9464000C9464000C9464000C94640090
:100060000C9464000C9464000C9464000C94640080
:100070000C9464000C9464000C9464000C94640070
:100080000C9464000C9464000C9464000C94640060
:100090000C9464000C9464000C9464000C94640050
:1000A0000C9464000C9464000C9464000C94640040
:1000B0000C94640011241FBECFEFD8E0DEBFCDBF8B
:1000C0000E9480000C94A2000C94000080E68093B3
:1000D0007C0087E880937A0008958770ECE7F0E071
:1000E0009081907F892B8083EAE7F0E080818064B3
:1000F000808380917A0086FDFCCF809179000895FD
:100100000E9466000E94930086E00E946D00D82F36
:1001100087E00E946D00C82F8D2F0E949C008C2FBD
:100120000E949C00F1CF84B1806184B984B1837D49
:1001300084B980E48CBD08958EBD0DB407FEFDCF5B
:080140008EB50895F894FFCF7D
:00000001FF
