S012000054696275726F6E3145312E7372656388
S11300000C9434000C9446000C9446000C94460066
S11300100C9446000C9446000C9446000C94460044
S11300200C9446000C9446000C9446000C94460034
S11300300C9446000C9446000C9446000C94460024
S11300400C9446000C9446000C9446000C94460014
S11300500C9446000C9446000C9446000C94460004
S11300600C946D000C94460011241FBECFEFD8E011
S1130070DEBFCDBF21E0A0E0B1E001C01D92A330FE
S1130080B207E1F70E9450000C94A9020C940000FE
S1130090880F8093BA0085E48093BC007894089517
S11300A00E94BE0089E00E9448000E94CD00AC017D
S11300B04150510921E04E30510508F020E0E1E0C3
S11300C0F1E0208381832FEF83EC99E0215080407D
S11300D09040E1F700C00000E8CF1F920F920FB6E6
S11300E00F9211248F93EF93FF938091B900887F2F
S11300F0883AA9F028F4803651F0883641F031C0AE
S1130100803C39F1883C29F1883B59F508C01092AC
S11301100001ECEBF0E08081806C808327C080914B
S11301200001823068F4E091000181E08E0F809339
S11301300001F0E0EF5FFE4F80818093BB0003C0BD
S11301408FEF8093BB00ECEBF0E08081806C8083C8
S11301500DC010920001ECEBF0E08081806C808394
S113016005C0ECEBF0E08081806C8083FF91EF911F
S11301708F910F900FBE0F901F9018958AB18460D5
S11301808AB98AB18F7E8AB98BB18B7F8BB9109271
S1130190800082E08093810008958BB184608BB9E4
S11301A025E32A95F1F700008BB18B7F8BB980E0B2
S11301B090E005C0019681362AEE920740F54C9BEB
S11301C0F9CF109285001092840080E090E005C081
S11301D0019681362AEE9207E8F44C99F9CF6091A2
S11301E084007091850080E090E00E94AE0120E0E0
S11301F030E040E05FE30E943C0220E030E048E66B
S113020052E40E940D010E947F01CB01089580E019
S113021090E0089587EE93E008950E9421010C94E4
S113022002020E94FB0158F00E94F40140F029F4FC
S11302305F3F29F00C94EB0151110C9436020C949D
S1130240F1010E94130268F39923B1F3552391F34A
S1130250951B550BBB27AA2762177307840738F031
S11302609F5F5F4F220F331F441FAA1FA9F335D08E
S11302700E2E3AF0E0E832D091505040E695001C42
S1130280CAF72BD0FE2F29D0660F771F881FBB1FFC
S1130290261737074807AB07B0E809F0BB0B802DDA
S11302A0BF01FF2793585F4F3AF09E3F510578F006
S11302B00C94EB010C9436025F3FE4F3983ED4F3C4
S11302C0869577956795B795F7959F5FC9F7880FDA
S11302D0911D9695879597F90895E1E0660F771F2C
S11302E0881FBB1F621773078407BA0720F0621BBD
S11302F0730B840BBA0BEE1F88F7E09508950E94E8
S11303001B0288F09F5798F0B92F9927B751B0F086
S1130310E1F0660F771F881F991F1AF0BA95C9F785
S113032014C0B13091F00E943502B1E008950C94EC
S11303303502672F782F8827B85F39F0B93FCCF39F
S1130340869577956795B395D9F73EF49095809502
S1130350709561957F4F8F4F9F4F0895E89409C022
S113036097FB3EF490958095709561957F4F8F4FE4
S11303709F4F9923A9F0F92F96E9BB279395F695FA
S1130380879577956795B795F111F8CFFAF4BB0F78
S113039011F460FF1BC06F5F7F4F8F4F9F4F16C0DC
S11303A0882311F096E911C0772321F09EE8872F66
S11303B0762F05C0662371F096E8862F70E060E022
S11303C02AF09A95660F771F881FDAF7880F96959B
S11303D0879597F9089597F99F6780E870E060E042
S11303E008959FEF80EC089500240A9416161706CA
S11303F018060906089500240A9412161306140612
S113040005060895092E0394000C11F4882352F074
S1130410BB0F40F4BF2B11F460FF04C06F5F7F4F2C
S11304208F4F9F4F089557FD9058440F551F59F013
S11304305F3F71F04795880F97FB991F61F09F3FCD
S113044079F087950895121613061406551FF2CFF6
S11304504695F1DF08C0161617061806991FF1CF46
S113046086957105610508940895E894BB2766276D
S11304707727CB0197F908950E944F020C9402024A
S11304800E94F40138F00E94FB0120F0952311F042
S11304900C94EB010C94F10111240C9436020E948B
S11304A0130270F3959FC1F3950F50E0551F629F9F
S11304B0F001729FBB27F00DB11D639FAA27F00DB9
S11304C0B11DAA1F649F6627B00DA11D661F829FE0
S11304D02227B00DA11D621F739FB00DA11D621FC5
S11304E0839FA00D611D221F749F3327A00D611DE2
S11304F0231F849F600D211D822F762F6A2F1124C4
S11305009F5750409AF0F1F088234AF0EE0FFF1FF6
S1130510BB1F661F771F881F91505040A9F79E3F4D
S1130520510580F00C94EB010C9436025F3FE4F328
S1130530983ED4F3869577956795B795F795E795A3
S11305409F5FC1F7FE2B880F911D9695879597F9AC
S10905500895F894FFCFAA
S9030000FC
