:100000000C9434000C9451000C9451000C94510049
:100010000C9451000C9451000C9451000C9451001C
:100020000C9451000C9451000C9451000C9451000C
:100030000C9451000C9451000C9471010C945100DB
:100040000C9451000C9451000C9451000C945100EC
:100050000C9451000C9451000C9451000C945100DC
:100060000C945A000C94510011241FBECFEFD8E01D
:10007000DEBFCDBF11E0A0E0B1E0E0E7F5E002C0F7
:1000800005900D92AA3CB107D9F721E0AAECB1E0A6
:1000900001C01D92A03DB207E1F70E9480000C94C0
:1000A000B6020C940000880F8093BA0085E4809318
:1000B000BC0008951F920F920FB60F9211248F93D8
:1000C000EF93FF938091B900887F883A11F0883BC5
:1000D00051F48091CA018093BB00ECEBF0E0808189
:1000E000806C808305C0ECEBF0E08081806C8083C5
:1000F000FF91EF918F910F900FBE0F901F90189569
:100100000E94960160E875E280E090E00E94AA01FA
:100110000E943D020E945F0189E00E945300789492
:100120001092CA018AE291E00E94D80183E491E032
:100130000E94D801C12CD12C7601812C912C540124
:1001400010E00E944702EC0101970E97D8F41111BC
:1001500019C08CE591E00E94D801CE010E94E50112
:1001600088E691E00E94D80181E08093CA010E9454
:1001700065010E949F014B015C018AE791E00E94AA
:10018000D80111E01123D1F00E949F01DC01CB01C5
:1001900088199909AA09BB09883B9B40A105B105AB
:1001A00068F08BE891E00E94D8010E946B011092E8
:1001B000CA018DE991E00E94D80110E00E949F01E0
:1001C000DC01CB018C199D09AE09BF09813D974027
:1001D000A105B105F8F08EEA91E00E94D8012097C0
:1001E00041F0CE010E94E5018AEB91E00E94D80126
:1001F00004C08EEB91E00E94D801112319F080E039
:1002000091E002C085E191E00E94D8010E949F0127
:100210006B017C018FEF90E722E0815090402040FD
:10022000E1F700C000008DCF85B1807F85B90895CA
:10023000882331F0813031F0823031F494E005C010
:1002400091E003C092E001C098E085B1807F892BE6
:1002500085B90895FF920F931F93CF93DF938C017D
:10026000F62EC0E0D0E020C0FF2011F091E001C0E8
:100270009FEF8091CB01890F8093CB01843014F0E4
:100280001092CB018091CB0188231CF483E08093F2
:10029000CB018091CB010E9418018FE39FE1019770
:1002A000F1F700C000002196C017D107E8F20E94C4
:1002B0001401DF91CF911F910F91FF90089584B1A8
:1002C0008F6084B90E941401089561E080E094E099
:1002D0000E942A01089560E080E094E00E942A01D3
:1002E00008951F920F920FB60F9211248F939F9330
:1002F000AF93BF938091CC019091CD01A091CE019D
:10030000B091CF010196A11DB11D8093CC019093B6
:10031000CD01A093CE01B093CF01BF91AF919F913A
:100320008F910F900FBE0F901F90189582E084BDA3
:1003300099EF97BD80936E0083E085BD0895F89492
:100340006091CC017091CD018091CE019091CF014F
:1003500078940895DC01CB01880F991FAA1FBB1F59
:10036000880F991FAA1FBB1F9C01AD01220F331FCD
:10037000441F551F220F331F441F551F60E074E2B6
:1003800084EF90E00E948502215031093093C5002E
:100390002093C40088E18093C10086E08093C2006E
:1003A00008959091C00095FFFCCF8093C6000895FA
:1003B000CF93DF93EC0103C021960E94D101888185
:1003C0008111FACFDF91CF9108951F93CF93DF93DF
:1003D00000D000D000D0CDB7DEB7AC01892B91F5AD
:1003E00080E30E94D1013FC09A01ADECBCEC0E94B9
:1003F000A7029695879596958795969587959C01E2
:10040000220F331F880F991F880F991F880F991F7C
:10041000820F931F9A01281B390BC901E1E0F0E01C
:10042000EC0FFD1FE10FF11D805D80839A010E949A
:10043000A702AC0156954795569547955695479511
:100440001F5F01C010E04115510571F60AC011503F
:10045000E1E0F0E0EC0FFD1FE10FF11D80810E9453
:10046000D1011111F4CF26960FB6F894DEBF0FBE5E
:10047000CDBFDF91CF911F9108958AB184608AB971
:100480008AB18F7E8AB98BB18B7F8BB908958BB17E
:1004900084608BB925E32A95F1F700008BB18B7F3F
:1004A0008BB980E090E009C02AE02A95F1F700C0FE
:1004B000019689392AE3920710F54C9BF5CF60E04D
:1004C00070E00AC08AE08A95F1F700C06F5F7F4F45
:1004D00069392AE37207B0F44C99F4CFCB01A0E05C
:1004E000B0E0BC01CD01660F771F881F991F2AE37A
:1004F00030E040E050E00E948502C901089580E0AC
:1005000090E0089580E090E00895A1E21A2EAA1BE1
:10051000BB1BFD010DC0AA1FBB1FEE1FFF1FA217B3
:10052000B307E407F50720F0A21BB30BE40BF50BB0
:10053000661F771F881F991F1A9469F76095709539
:10054000809590959B01AC01BD01CF010895A29FBC
:10055000B001B39FC001A39F700D811D1124911D97
:10056000B29F700D811D1124911D0895F894FFCF45
:10057000207C20506F72746F6E3A20414249455280
:10058000544F0D0A00207C20506F72746F6E3A2019
:100590004345525241444F0D0A003D3D3D204553D5
:1005A000434C41564F20504F52544F4E203D3D3DFD
:1005B0000D0A004573706572616E646F2076656820
:1005C0006963756C6F732E2E2E0D0A00566568696F
:1005D00063756C6F2061200020636D202D3E2041EB
:1005E000425249454E444F0D0A00506F72746F6E6F
:1005F000204142494552544F0D0A00434552524151
:100600004E444F20706F72746F6E0D0A00506F72FF
:10061000746F6E204345525241444F0D0A004469A5
:100620007374616E6369613A200020636D007369C1
:0A0630006E206C6563747572610042
:00000001FF
