:100000000C9434000C9449000C9449000C94490061
:100010000C9449000C9449000C9449000C9449003C
:100020000C9449000C9449000C9449000C9449002C
:100030000C9449000C9449000C9449000C9449001C
:100040000C9449000C9449000C9449000C9449000C
:100050000C9449000C9449000C9449000C944900FC
:100060000C9449000C94490011241FBECFEFD8E036
:10007000DEBFCDBF11E0A0E0B1E0E8EAF1E002C0F0
:1000800005900D92AC3AB107D9F70E949C000C94F0
:10009000D2000C9400001092C0001092C50087E6B8
:1000A0008093C40088E08093C10086E08093C20002
:1000B00008959091C00095FFFCCF8093C6000895ED
:1000C000CF93DF93EC0103C00E94590021968881F1
:1000D0008111FACFDF91CF9108958AB183708AB9E7
:1000E0008BB18C6F8BB90895CF93C82F82FF04C05A
:1000F00080E091E00E946000C3FF04C08DE091E0C9
:100100000E946000C4FF04C089E191E00E94600089
:10011000C5FF04C087E291E00E946000C6FF04C0F2
:1001200087E391E00E946000CC2324F486E491E010
:100130000E946000CF9108950E944B000E946D00C4
:1001400089B1D82FDC7F89EA91E00E94600085E5C3
:1001500091E00E94600084E791E00E9460008BE8DB
:1001600091E00E946000C9B1CC7F8C2F80958D23D7
:100170008C7F81F02FEF36E791E0215030409040A6
:10018000E1F700C00000C9B1CC7F9C2F9095892376
:100190000E9474008FE19EE40197F1F700C0000017
:0801A000DC2FE1CFF894FFCF42
:1001A80055202D204152524942410D0A0044202D2C
:1001B800204142414A4F0D0A0052202D2044455209
:1001C800454348410D0A004C202D20495A515549B4
:1001D800455244410D0A0041202D20414343494FD7
:1001E8004E20410D0A0042202D20414343494F4EE5
:1001F80020420D0A003D3D3D3D3D3D3D3D3D3D3DDF
:100208003D3D3D3D3D3D3D3D3D3D3D3D3D3D3D3D16
:100218003D0D0A004573706572616E646F20626FF0
:10022800746F6E65732E2E2E0D0A003D3D3D3D3DCB
:100238003D3D3D3D3D3D3D3D3D3D3D3D3D3D3D3DE6
:0C0248003D3D3D3D3D3D3D0D0A0D0A00D1
:00000001FF
