S00F00004D61657374726F2E737265633A
S11300000C9434000C9451000C9451000C94510045
S11300100C9451000C9451000C9451000C94510018
S11300200C9451000C9451000C9451000C94510008
S11300300C9451000C9451000C94C9020C9451007E
S11300400C9451000C9451000C9451000C945100E8
S11300500C9451000C9451000C9451000C945100D8
S11300600C9451000C94510011241FBECFEFD8E022
S1130070DEBFCDBF11E0A0E0B1E0E6EFFCE002C0DE
S113008005900D92AE37B107D9F721E0AEE7B1E0A4
S113009001C01D92A738B207E1F70E9408020C9430
S11300A079060C9400001092B90088E48093B8009B
S11300B084E08093BC00089584EA8093BC0080911E
S11300C0BC008823E4F7089584E98093BC00809100
S11300D0BC0084FDFCCF08958093BB0084E880932A
S11300E0BC008091BC008823E4F78091B900887F2C
S11300F00895882311F084EC01C084E88093BC0047
S11301008091BC008823E4F78091BB000895CF93CD
S1130110C82F0E945C008C2F90E0880F991F81608B
S11301200E946C008091B900887F803421F00E9485
S1130130640080E007C080E00E947900C82F0E941C
S113014064008C2FCF91089585B1846085B985E0D2
S11301508A95F1F7000085B18B7F85B987EC90E033
S11301600197F1F700C000000895662321F095B1CE
S1130170986095B903C095B1977F95B99BB1282F25
S113018030E0220F331F220F331F9370292B2BB91A
S113019095B19C7F8295869586958370892B85B9C8
S11301A00E94A4000895CF93C82F60E00E94B50078
S11301B0C150C23030F48FE39FE10197F1F700C0E2
S11301C00000CF91089561E00E94B5000895CF9397
S11301D0DF93EC0103C021960E94E3008881811122
S11301E0FACFDF91CF910895662319F0805C80687F
S11301F001C080680E94D300089581E00E94D3006A
S113020008950F931F93CF938B0190E0880F991F4C
S1130210880F991F880F991F80640E94D300C0E043
S113022007C0F801EC0FF11D80810E94E300CF5F4D
S1130230C830B8F380E80E94D300CF911F910F918A
S1130240089584B18F6084B98AB18C6F8AB92FEF15
S113025080E792E0215080409040E1F700C0000028
S113026080E30E94D3008FE19EE40197F1F700C080
S1130270000080E30E94D30087E592E00197F1F744
S113028000C0000080E30E94D30087E592E001975C
S1130290F1F700C0000088E30E94D30088E00E94C8
S11302A0D30081E00E94D3008FE39FE10197F1F72F
S11302B000C0000086E00E94D3008CE00E94D300BE
S11302C0089560E080E00E94F40080E091E00E94E4
S11302D0E70008950F931F93CF93DF93009180015C
S11302E01091810161E080E00E94F400980136954C
S11302F0279536952795ABE7B4E10E946A06AC01D1
S1130300569547959A01ADECBCEC0E946A06969509
S1130310879596958795969587959C01220F331F0F
S1130320880F991F880F991F880F991F820F931F99
S11303309A01281B390BC901805D0E94E3009801D2
S1130340ADECBCEC0E946A06EC01D695C795D69537
S1130350C795D695C7959E010E946A06969587957E
S113036096958795969587959C01220F331F880F44
S1130370991F880F991F880F991F820F931F9E0141
S1130380281B390BC901805D0E94E300CE01880F50
S1130390991FCC0FDD1FCC0FDD1FCC0FDD1FC80F45
S11303A0D91FC8018C1B9D0B805D0E94E3008CE16A
S11303B091E00E94E70061E085E00E94F4008091F2
S11303C07F01813021F480E00E94E30009C0823083
S11303D021F488E50E94E30003C08DE20E94E3005B
S11303E08AE191E00E94E70061E08AE00E94F40063
S11303F080917E01882319F081E191E002C088E1B7
S113040091E00E94E700DF91CF911F910F91089531
S11304100E94EE0260E875E280E090E00E94020330
S11304200E9453000E942101789465E771E080E006
S11304300E94010160E080E00E94F4008FE191E0FD
S11304400E94E70061E080E00E94F4008FE291E006
S11304500E94E7002FEF8DE399E421508040904003
S1130460E1F700C000000E94FC04182F0E94FD0068
S113047011111BC060E080E00E94F4008CE391E065
S11304800E94E70061E080E00E94F4008AE491E0C9
S11304900E94E7002FEF87EA91E6215080409040C8
S11304A0E1F700C000000E94FD000E946101C12C20
S11304B0D12C7601D0E000E01123F1F10E94ED058A
S11304C09C0191E02C3281E0380708F090E0C92FBC
S11304D02C32314060F501112CC00E94F702DC017E
S11304E0CB018C199D09AE09BF098D3D9540A1052D
S11304F0B10508F18091800190918101019690935A
S11305008101809380010E94F7026B017C0189E5DF
S113051091E00E94300380918001909181010E94BA
S11305203D0389E691E00E9430030C2F05C0092F9A
S113053003C0092F01C00C2F88E00E948700C82F38
S113054081FF09C0D1FD07C081E080937F0180E66F
S113055091E00E943003C2FF09C0D2FD07C082E0CF
S113056080937F018BE691E00E94300389E00E9432
S11305708700817080937E010E946A018FEF9BED5A
S113058025E0815090402040E1F700C00000DC2FBE
S113059093CF1F920F920FB60F9211248F939F93B4
S11305A0AF93BF938091820190918301A0918401C4
S11305B0B09185010196A11DB11D80938201909394
S11305C08301A0938401B0938501BF91AF919F9162
S11305D08F910F900FBE0F901F90189582E084BDED
S11305E099EF97BD80936E0083E085BD0895F894DC
S11305F060918201709183018091840190918501C1
S113060078940895DC01CB01880F991FAA1FBB1FA2
S1130610880F991FAA1FBB1F9C01AD01220F331F16
S1130620441F551F220F331F441F551F60E074E2FF
S113063084EF90E00E944806215031093093C500B0
S11306402093C40088E18093C10086E08093C200B7
S113065008959091C00095FFFCCF8093C600089543
S1130660CF93DF93EC0103C021960E942903888174
S11306708111FACFDF91CF9108951F93CF93DF9328
S113068000D000D000D0CDB7DEB7AC01892B91F5F6
S113069080E30E9429033FC09A01ADECBCEC0E94A8
S11306A06A069695879596958795969587959C0164
S11306B0220F331F880F991F880F991F880F991FC6
S11306C0820F931F9A01281B390BC901E1E0F0E066
S11306D0EC0FFD1FE10FF11D805D80839A010E94E4
S11306E06A06AC0156954795569547955695479594
S11306F01F5F01C010E04115510571F60AC0115089
S1130700E1E0F0E0EC0FFD1FE10FF11D80810E949C
S113071029031111F4CF26960FB6F894DEBF0FBE4D
S1130720CDBFDF91CF911F9108951F93CF93DF9396
S1130730182FC62FD72F0E945C0082E50E946C0000
S1130740812F0E946C008D2F0E946C008C2F0E94C0
S11307506C000E946400DF91CF911F9108950F9364
S11307601F93CF93DF93C82F8B01D42F0E945C007B
S113077082E50E946C008C2F0E946C00C0E007C0D0
S1130780F801EC0FF11D80810E946C00CF5FCD1742
S1130790B8F30E946400DF91CF911F910F910895E7
S11307A0CF93DF93D82FC62F0E945C0082E50E946E
S11307B06C008D2F0E946C008C2F0E946C000E9494
S11307C06400DF91CF910895EF92FF920F931F93EE
S11307D0CF93DF93C82F7B01D42F0E945C0082E566
S11307E00E946C008C2F0E946C000E945C0083E5C8
S11307F00E946C00C0E013C04C2F50E08701040F2E
S1130800151F2D2F30E02150310981E04217530785
S11308100CF080E00E947900F8018083CF5FCD174F
S113082058F30E946400DF91CF911F910F91FF90C4
S1130830EF900895CF93C82F0E945C0082E50E9438
S11308406C008C2F0E946C000E945C0083E50E9467
S11308506C0080E00E947900C82F0E9464008C2FF5
S1130860CF910895EF92FF920F931F93CF93DF934D
S11308707C018B0161E080E80E94D00361E08FEF8E
S11308800E94D00360E080E00E94D00366E08FEF16
S11308900E94D00383E80E941A04682F646083E8EE
S11308A00E94D00367E08FEF0E94D00361E081E8EB
S11308B00E94D00361E080E80E94D0036BE684E9E3
S11308C00E94D00360E083E80E94D003C0E0D0E03F
S11308D00AC0EFE9FFE03197F1F700C0000021966C
S11308E0C93CD105B0F583E80E941A04882389F332
S11308F061E083E80E94D00382E90E941A04982FE1
S11309009F77F7019083881F8827881FF8018083C9
S113091060E081E80E94D00366E08FEF0E94D0037C
S113092083E80E941A04682F6B7F83E80E94D00337
S113093061E08FEF0E94D00361E080E00E94D00369
S113094060E08FEF0E94D00360E080E80E94D00353
S113095081E0DF91CF911F910F91FF90EF90089567
S1130960CF93DF93682F616080E00E94D003C0E0E2
S1130970D0E00AC0EFE9FFE03197F1F700C00000D2
S11309802196C93CD10570F483E10E941A04877052
S113099089F361E08BE00E94D00360E080E00E9474
S11309A0D00381E0DF91CF9108950F931F93CF93EC
S11309B0DF93C82F0E945C0082E50E946C008C2F9C
S11309C00E946C000E945C0083E50E946C0081E040
S11309D00E947900C82FD0E080E00E947900082F9F
S11309E010E00E9464009C2F8827802B912BDF91BC
S11309F0CF911F910F910895CF93DF93CDB7DEB7B9
S1130A0028970FB6F894DEBF0FBECDBF87B18260C2
S1130A1087B988B18D7F88B98FE39CE90197F1F795
S1130A2000C0000088B1826088B98FE39CE9019717
S1130A30F1F700C0000080EC0E941A048E3E09F019
S1130A40C2C060E088E80E94D00361E080E80E94B0
S1130A50D00361E08FEF0E94D00360E080E00E9449
S1130A60D00381E90E941A048093860161E080E04A
S1130A700E94D00360E08FEF0E94D00360E080E822
S1130A800E94D00380E60E941A04682F626180E607
S1130A900E94D00360E270E084E40E9495036FEF4B
S1130AA081E00E94D003BE016E5F7F4FCE010196AC
S1130AB00E943204882309F487C046E0BE016D5FBA
S1130AC07F4F80EB0E94E40361E08FEF0E94D0032C
S1130AD060E08FE40E94D0036CE28EE40E94D003B5
S1130AE060E08FEF0E94D00364EB86EB0E94D0039A
S1130AF08A81882311F05CE001C050E080E060E06E
S1130B002DC0482F469546954695982F9770851782
S1130B1018F02981621312C021E030E002C0220FD4
S1130B20331F9A95E2F7E3E0F0E0EC0FFD1FE40FCA
S1130B30F11D20959081292320830FC0E3E0F0E08C
S1130B40EC0FFD1FE40FF11D208130E002C035954C
S1130B5027959A95E2F720FD6F5F8F5F803388F2C7
S1130B6046E0BE016D5F7F4F80EB0E94AF0364E0FF
S1130B708AE00E94D00384E80E941A04682F6F7EE2
S1130B8084E80E94D00361E08BE00E94D00368EE09
S1130B9081E00E94D00361E081E00E94D00380E400
S1130BA00E94B004882381F062E081E00E94D003B7
S1130BB080E00E94B004882339F068EE81E00E944E
S1130BC0D00381E001C080E028960FB6F894DEBF20
S1130BD00FBECDBFDF91CF910895CF93DF9361E036
S1130BE080E80E94D00361E08FEF0E94D00360E0B0
S1130BF080E00E94D0036091860181E90E94D003C5
S1130C0061E080E00E94D00360E08FEF0E94D00397
S1130C1060E080E80E94D00361E080E00E94D0039D
S1130C20C0E0D0E00AC08FE99FE00197F1F700C06F
S1130C3000002196C536D10518F580E00E941A04FB
S1130C4080FDF1CFC0E0D0E00AC08FE99FE00197BA
S1130C50F1F700C000002196C536D105A0F483E168
S1130C600E941A04877089F38EE10E94D504D82F5C
S1130C70C92F61E08BE00E94D0038D2F9C2F05C00B
S1130C808FEF9FEF02C08FEF9FEFDF91CF91089519
S1130C90A1E21A2EAA1BBB1BFD010DC0AA1FBB1F7C
S1130CA0EE1FFF1FA217B307E407F50720F0A21BEE
S1130CB0B30BE40BF50B661F771F881F991F1A945B
S1130CC069F760957095809590959B01AC01BD0185
S1130CD0CF010895A29FB001B39FC001A39F700DDF
S1130CE0811D1124911DB29F700D811D1124911D30
S1090CF00895F894FFCF03
S1130CF6533120202053322020205333202020201B
S1130D06004F2020202020004320202020200045C2
S1130D1673746163696F6E616D69656E746F0049A2
S1130D266E696369616E646F2E2E2E004552524FB2
S1130D365220564C35334C305800526576697361EF
S1130D46205344412F53434C00434152524F3A00DF
S1130D5641434345534F3A4F4B0A0041434345539E
S1110D664F3A580A00000103161C0800000052
S9030000FC
