S01600004573636C61766F5F41636365736F2E7372656394
S11300000C9434000C9451000C9451000C94510045
S11300100C9451000C9451000C9451000C947B04EA
S11300200C9451000C9451000C9451000C94510008
S11300300C9451000C9451000C9451000C945100F8
S11300400C9451000C9451000C9451000C945100E8
S11300500C9451000C9451000C9451000C945100D8
S11300600C945A000C94510011241FBECFEFD8E019
S1130070DEBFCDBF12E0A0E0B1E0EAE7FAE002C0E3
S113008005900D92A433B107D9F722E0A4E3B2E0BE
S113009001C01D92A235B207E1F70E94C5000C947D
S11300A03B050C940000880F8093BA0085E480938C
S11300B0BC0008951F920F920FB60F9211248F93D4
S11300C0EF93FF938091B900887F883A11F0883BC1
S11300D051F4809134028093BB00ECEBF0E080811A
S11300E0806C808305C0ECEBF0E08081806C8083C1
S11300F0FF91EF918F910F900FBE0F901F90189565
S1130100DC01809144028823D1F08091450286135A
S113011013C090E00DC0292F30E0FD01E20FF31F62
S11301204081F901E55BFD4F2081421307C09F5FC9
S1130130961788F381E0089580E0089580E008959B
S1130140CF9385E091E00E94E5048AE50E9465046E
S1130150C1E0C09343020E94AC0460933F027093D9
S113016040028093410290934202C0933E02109257
S11301703D020E94AC046093390270933A0280936A
S11301803B0290933C02CF910895CF93DF93CDB778
S1130190DEB728970FB6F894DEBF0FBECDBF0E941E
S11301A0A00460E875E280E090E00E94B7040E9439
S11301B04F040E941D0288E00E945300789480E05E
S11301C00E94650487E291E00E94E50480E491E0E6
S11301D00E94E5040E9403022FEF83ED90E3215077
S11301E080409040E1F700C000000E940D022FEF14
S11301F083ED90E3215080409040E1F700C000007F
S11302000E9417020E945003882339F084E591E08C
S11302100E94E5040E94AA0304C08FE591E00E94B5
S1130220E50487E991E00E94E5040E942D020E9402
S1130230AC040091350210913602209137023091BE
S11302403802DC01CB01801B910BA20BB30B803273
S11302509340A105B10508F46EC042E350E0BE012D
S1130260685F7F4FCE0101960E94E503882309F45D
S113027062C00E94AC04609335027093360280938E
S113028037029093380287EA91E00E94E50410E077
S11302900AC0E1E0F0E0EC0FFD1FE10FF11D8081E9
S11302A00E94F2041F5F8885181798F384E991E08F
S11302B00E94E50480914402882381F01FC0822FAC
S11302C090E0E1E0F0E0EC0FFD1FE80FF91F308152
S11302D0FC01E55BFD4F30832F5F01C020E0888582
S11302E0281768F38093450281E08093440281EBF0
S11302F091E00E94E5040E94A0001DC06885CE0123
S113030001960E948000882319F00E94A00013C067
S113031086EC91E00E94E50481E080933D02109216
S11303203E020E94AC046093390270933A028093B7
S11303303B0290933C02809143028823F1F00E9497
S1130340AC0400913F02109140022091410230918F
S11303504202DC01CB01801B910BA20BB30B883B47
S11303609B40A105B10548F08BED91E00E94E504A6
S113037080E00E9465041092430280913E02811144
S113038004C080913D028823C9F00E94AC0400910E
S1130390390210913A0220913B0230913C02DC0177
S11303A0CB01801B910BA20BB30B843C9940A1059C
S11303B0B10520F010923E0210923D0281E090912E
S11303C04302911101C080E090913E02992311F003
S11303D092E001C090E0892B90913D02992311F0A5
S11303E094E001C090E0892B809334021ECF88BD35
S11303F084B5806284BD089584B58F7D84BD8BB13E
S11304008F7D8BB908958BB180648BB98BB18F7755
S11304108BB988EC0E94F70108958BB18F7B8BB95F
S11304208BB180688BB988EC0E94F70108958BB179
S11304308F738BB90E94FC0108958AB1806E8AB9CA
S11304408AB1877E8AB98BB188618BB983E084BD18
S113045085BD18BC0E941702089599B189B18071B5
S1130460292F287093FD10C0882371F080914602D3
S1130470811107C085EF91E00E94E50481E080933B
S113048046020E9403020895811110C0222371F0D4
S113049080914602811107C083E092E00E94E50446
S11304A081E0809346020E940D02089580914602E5
S11304B0882331F081E192E00E94E5041092460223
S11304C00E941702089584B18C6284B984B18F7E2E
S11304D084B985B1846085B981E78CBD08958EBDEA
S11304E00DB407FEFDCF8EB5089585B18B7F85B918
S11304F08FE39FE10197F1F700C00000089585E3C1
S11305008A95F1F7000085B1846085B90895CF928A
S1130510DF92FF920F931F93CF93DF936C01F62E1C
S11305200E94750281E00E946F0280E00E946F02C7
S113053080E00E946F028FEF0E946F028F2D0E9455
S11305406F028F2D81950E946F02C0E0D0E00BC036
S113055086010C0F111DF80180810E946F02F801C1
S11305608081D80FCF5FCF1598F38D2F81950E948E
S11305706F0280E00E946F020E947F02DF91CF91A0
S11305801F910F91FF90DF90CF900895CF930E9419
S1130590750283E00E946F02C0E004C080E00E9404
S11305A06F02CF5FC630D0F30E947F02CF910895CF
S11305B0DF92EF92FF920F931F93CF93DF938C01FF
S11305C0D62E0E94750283E00E946F0280E00E9492
S11305D06F0280E00E946F0280E00E946F0280E060
S11305E00E946F02D82F80E00E946F0280E00E9478
S11305F06F02D1110EC00E947F0280E020C07801FA
S1130600EC0EF11C80E00E946F02F7018083CF5F43
S113061001C0C0E04C2F50E02D2F30E021503109B3
S11306204217530714F4CD1550F380E00E946F0273
S113063080E00E946F020E947F028FEF8D0FDF9196
S1130640CF911F910F91FF90EF90DF900895EF925B
S1130650FF921F93CF93DF937C01C0E0D0E014C0DE
S11306600E94750282E00E946F0280E00E946F0285
S1130670182F0E947F0210FD0CC08FE99FE00197A4
S1130680F1F700C000002196CE15DF0548F380E0A5
S113069001C081E0DF91CF911F91FF90EF90089509
S11306A0CF93DF93CDB7DEB729970FB6F894DEBFAB
S11306B00FBECDBF82E089830E94630287B181604F
S11306C087B988B18E7F88B92FEF81EE94E02150ED
S11306D080409040E1F700C0000088B1816088B993
S11306E02FEF83EC99E0215080409040E1F700C067
S11306F0000061E0CE0101960E9487028FE39FE132
S11307000197F1F700C0000088EC90E00E942703F5
S11307108823B9F00E94C60288EC90E00E94270367
S1130720882379F068E0CE0102960E94D8028230D4
S113073028F08B81823321F080E003C080E001C087
S113074081E029960FB6F894DEBF0FBECDBFDF91CE
S1130750CF910895CF93DF93CDB7DEB72D970FB622
S1130760F894DEBF0FBECDBF85E0E0E0F1E0DE012E
S1130770119601900D928A95E1F765E0CE010196FC
S11307800E9487028FE39FE10197F1F700C0000008
S113079088EE93E00E942703882371F00E94C6022A
S11307A088EE93E00E942703882331F068E0CE01AD
S11307B006960E94D80281E02D960FB6F894DEBF0B
S11307C00FBECDBFDF91CF910895CF92DF92EF920C
S11307D0FF920F931F93CF93DF93CDB7DEB7689744
S11307E00FB6F894DEBF0FBECDBF7C018B016A014A
S11307F084ED89838AE48A8381E08B831C8264E0AC
S1130800CE0101960E9487028FE39FE10197F1F7E1
S113081000C0000082E390E00E942703882381F156
S11308200E94C602C6010E942703882349F164E19D
S1130830CE0105960E94D802873008F18E81882364
S1130840F9F08B85F8018083883010F087E080838D
S113085020E00FC0822F90E0D701A80FB91F0796A0
S1130860E5E0F0E0EC0FFD1FE80FF91F80818C93A9
S11308702F5FF8018081281768F381E001C080E0D0
S113088068960FB6F894DEBF0FBECDBFDF91CF914F
S11308901F910F91FF90EF90DF90CF90089584B156
S11308A0826084B98FE39CE99093870080938600EB
S11308B082E8809380008AE18093810080ED97E054
S11308C090938900809388000895853B08F084EB19
S11308D0282F30E0A0EDB7E00E942C0524EB30E097
S11308E040E050E00E940A052053384F30938900BD
S11308F02093880008951F920F920FB60F9211242F
S11309008F939F93AF93BF93809147029091480236
S1130910A0914902B0914A020196A11DB11D809394
S1130920470290934802A0934902B0934A02BF91B0
S1130930AF919F918F910F900FBE0F901F901895BC
S113094082E08093B00099EF9093B300809370009D
S113095084E08093B1000895F89460914702709107
S113096048028091490290914A0278940895DC01EA
S1130970CB01880F991FAA1FBB1F880F991FAA1F9D
S1130980BB1F9C01AD01220F331F441F551F220FB3
S1130990331F441F551F60E074E284EF90E00E940F
S11309A00A05215031093093C5002093C40088E121
S11309B08093C10086E08093C20008959091C000A6
S11309C095FFFCCF8093C6000895CF93DF93EC018D
S11309D003C021960E94DE0488818111FACFDF9141
S11309E0CF910895CF93C82FE82FE295EF70F0E0F0
S11309F0EE5DFD4F80810E94DE04CF70EC2FF0E0AD
S1130A00EE5DFD4F80810E94DE0480E20E94DE04E0
S1130A10CF910895A1E21A2EAA1BBB1BFD010DC0A4
S1130A20AA1FBB1FEE1FFF1FA217B307E407F5079A
S1130A3020F0A21BB30BE40BF50B661F771F881F76
S1130A40991F1A9469F760957095809590959B010C
S1130A50AC01BD01CF010895A29FB001B39FC001B5
S1130A60A39F700D811D1124911DB29F700D811DD6
S10D0A701124911D0895F894FFCF9E
S1130A7AD4140114013E3E2041636365736F205010
S1130A8A45524D495449444F2C20736572766F2060
S1130A9A612039300D0A003D3D3D204553434C4108
S1130AAA564F2041434345534F203D3D3D0D0A00D7
S1130ABA50726F62616E646F206D6F746F722E2E46
S1130ACA2E0D0A00504E353332204F4B0D0A004585
S1130ADA52524F523A20504E353332206E6F2065AF
S1130AEA6E636F6E747261646F20287377697463BE
S1130AFA6820656E205350493F206361626C6561CA
S1130B0A646F3F290D0A0053697374656D61206C23
S1130B1A6973746F0D0A005461726A6574613A20CC
S1130B2A005461726A6574612052454749535452AC
S1130B3A4144410D0A003E3E2041636365736F20C0
S1130B4A44454E454741444F0D0A003E3E205365F5
S1130B5A72766F206465207265677265736F2061AF
S1130B6A20300D0A00426F746F6E20535542495269
S1130B7A0D0A00426F746F6E2042414A41520D0AB7
S1130B8A004D6F746F7220646574656E69646F0DCD
S1130B9A0A00303132333435363738394142434426
S1070BAA45460000B8
S9030000FC
