:100000000C9434000C9451000C9451000C94510049
:100010000C9451000C9451000C9451000C9451001C
:100020000C9451000C9451000C9451000C940C0150
:100030000C9451000C9451000C9443010C94510009
:100040000C9451000C9451000C9451000C945100EC
:100050000C9451000C9451000C9451000C945100DC
:100060000C9451000C94510011241FBECFEFD8E026
:10007000DEBFCDBF11E0A0E0B1E0E6EDF3E002C0ED
:1000800005900D92A231B107D9F721E0A2E1B1E0CC
:1000900001C01D92AE31B207E1F70E948D000C94B1
:1000A000E9010C9400008FEF8AB91BB808958031E4
:1000B00030F4E82FF0E0EF5FFE4F80818BB90895B8
:1000C0001BB8089587B1837E87B988B18C6188B9E0
:1000D00084B18F6384B987B1836087B985B1807C2F
:1000E00085B988B18C7F88B90895109280008DE021
:1000F0008093810088E09DE390938900809388003D
:1001000082E080936F00089582E084BD95E095BD04
:100110009DE497BD80936E0008950E9462000E9446
:1001200053000E9484000E9475007894FFCF21E064
:1001300030E002C0220F331F8A95E2F7215085B1CB
:10014000807F2F70282B25B9089521E030E002C070
:10015000220F331F8A95E2F7215035B1922F937009
:1001600040E1949FC0011124932F9F7C892B85B976
:1001700088B12695269523708C7F282B28B9089561
:10018000FC01662339F08081823050F480818F5FDA
:10019000808306C08081882319F08081815080830C
:1001A0008081823018F081E08183089580818111FF
:1001B00001C011820895FC018181813029F482817E
:1001C000882321F080E003C080E001C081E09181BC
:1001D0009283089580911C01843068F083E08093BD
:1001E0001D018FE00E94970080E00E94A50081E041
:1001F0000E945700089580911B01843060F083E0D5
:1002000080931D018FE00E94A50080E00E9497006E
:1002100082E00E94570008951F920F920FB60F922E
:1002200011242F933F934F935F936F937F938F93FB
:100230009F93AF93BF93EF93FF9380911D01813004
:1002400089F4809100010E94570080910001811182
:1002500004C082E080931D0105C08091000181509F
:1002600080930001FF91EF91BF91AF919F918F918A
:100270007F916F915F914F913F912F910F900FBEA2
:100280000F901F9018951F920F920FB60F92112486
:100290001F932F933F934F935F936F937F938F930E
:1002A0009F93AF93BF93CF93DF93EF93FF9366B189
:1002B0006695669581E068276170D6B1D695D6952A
:1002C000D695D827D170C6B1C295CF708C27C82FCC
:1002D000C17088E191E00E94C0006D2F85E191E03E
:1002E0000E94C0006C2F82E191E00E94C00088E172
:1002F00091E00E94DB00C82F85E191E00E94DB00C5
:10030000182F82E191E00E94DB00D82FCC2389F1E5
:1003100080911D01833079F410921C0110921B0111
:1003200080E00E94970080E00E94A5000E9460008B
:1003300010921D011EC080911D0181111AC085E01F
:100340008093000110921C0110921B0180E00E941A
:10035000970080E00E94A50081E080931D0110922B
:1003600085001092840085E00E94570084E080930D
:10037000000180911D018230C1F4112349F0809168
:100380001C018F5F80931C0180911C010E949700CB
:10039000DD2349F080911B018F5F80931B018091C9
:1003A0001B010E94A5000E94EA00FF91EF91DF91DE
:1003B000CF91BF91AF919F918F917F916F915F91FD
:1003C0004F913F912F911F910F900FBE0F901F9053
:0603D0001895F894FFCF20
:1003D600053F065B4F666D7D077F6F777C395E79DB
:0203E6007100A4
:00000001FF
