S010000054696275726F6E312E7372656300
S11300000C9434000C943E000C943E000C943E007E
S11300100C943E000C943E000C943E000C943E0064
S11300200C943E000C943E000C943E000C943E0054
S11300300C943E000C943E000C943E000C943E0044
S11300400C943E000C943E000C943E000C943E0034
S11300500C943E000C943E000C943E000C943E0024
S11300600C943E000C943E0011241FBECFEFD8E048
S1130070DEBFCDBF0E9494000C94B8000C94000025
S113008084B1806284B908951092B90088E48093A1
S1130090B80084E08093BC00089584EA8093BC0097
S11300A08091BC008823E4F7089584E98093BC0020
S11300B0089590E0880F991F81608093BB0084E8C5
S11300C08093BC008091BC008823E4F7089584ECFD
S11300D08093BC008091BC008823E4F78091BB002E
S11300E0089584E88093BC008091BC008823E4F7E1
S11300F08091BB0008950F931F93CF93DF938C01DE
S1130100EB010E944D0089E00E9459000E946700A3
S1130110F80180830E94710088830E945500DF915A
S1130120CF911F910F910895CF93DF9300D0CDB756
S1130130DEB70E9440000E944400BE016F5F7F4F03
S1130140CE0102960E947B008A81882321F085B12A
S1130150806285B903C085B18F7D85B92FEF83ECAB
S113016099E0215080409040E1F700C00000E5CFC5
S1070170F894FFCF2D
S9030000FC
