:100000000C9434000C9451000C9451000C94510049
:100010000C9451000C9451000C9451000C9451001C
:100020000C9451000C9451000C9451000C9451000C
:100030000C9451000C9451000C9451000C945100FC
:100040000C9451000C9451000C9447020C945100F4
:100050000C9451000C9451000C9451000C945100DC
:100060000C9451000C94510011241FBECFEFD8E026
:10007000DEBFCDBF11E0A0E0B1E0E2E1FBE002C0F5
:1000800005900D92A034B107D9F721E0A0E4B1E0CA
:1000900001C01D92A134B207E1F70E9462010C94E5
:1000A00087050C9400009BB1282F30E0220F331FEE
:1000B000220F331F9370292B2BB995B19C7F82950A
:1000C000869586958370892B85B9089585B184605E
:1000D00085B985E08A95F1F7000085B18B7F85B9F8
:1000E00085E08A95F1F700000895CF93C82F85B178
:1000F000877F85B98C2F0E9453000E946600C150F3
:10010000C23038F48FE39FE10197F1F700C000009F
:1001100006C087EC90E00197F1F700C00000CF9196
:10012000089595B1986095B90E9453000E946600A9
:1001300087EC90E00197F1F700C000000895CF939D
:10014000DF93EC0103C00E94910021968881811108
:10015000FACFDF91CF9108956111805C80680E9491
:100160007500089581E00E94750008958AB18C6F32
:100170008AB984B1836084B984B18C6084B985B153
:100180008B7F85B92FEF89EF90E021508040904020
:10019000E1F700C0000080E30E94530085B1877F33
:1001A00085B90E9466008FE19EE40197F1F700C0D7
:1001B000000080E30E9453000E9466008FE193E0FC
:1001C0000197F1F700C0000080E30E9453000E94F5
:1001D00066008FE193E00197F1F700C0000088E32B
:1001E0000E94750088E00E94750081E00E94750001
:1001F00086E00E9475008CE00E947500089580E4FE
:1002000080937C0087E880937A000895ECE7F0E023
:100210009081907F8F70892B8083EAE7F0E0808166
:100220008064808380917A0086FDFCCF8091780085
:10023000909179000895CF92DF92EF92FF92CF9341
:10024000DF93D82FC0E0C12CD12C760108C08D2FB0
:100250000E940601C80ED91EE11CF11CCF5FC031FF
:10026000B0F3D701C601689413F8B695A795979592
:1002700087951694D1F7DF91CF91FF90EF90DF90A3
:10028000CF9008951092C50087E68093C40088E956
:100290008093C10086E08093C20008959091C000D1
:1002A00095FFFCCF8093C6000895CF93DF93EC01B8
:1002B00003C00E944E01219688818111FACFDF91FF
:1002C000CF910895CF93DF93CDB7DEB7E0970FB608
:1002D000F894DEBF0FBECDBF0E94B6000E94FF00A3
:1002E0000E944201789460E080E00E94AC0080E0CF
:1002F00091E00E949F002FEF83ED90E3215080401A
:100300009040E1F700C000000E94B20060E080E091
:100310000E94AC0080E191E00E949F0060E086E0D6
:100320000E94AC0084E191E00E949F0060E08BE0BD
:100330000E94AC0088E191E00E949F0080E00E9452
:100340001B017C0181E00E941B01182F092F9701DE
:10035000A8E8B3E10E948E022FEF33E040E050E0C6
:100360000E946C0269017A01F901F695E795F6950C
:10037000E795F695E7959F01A5ECB0E20E948E0205
:10038000AC01529542954F7045275F70452728EE86
:1003900033E0429FC001439F900D529F900D112466
:1003A0009601281B390BADECBCEC0E948E02969591
:1003B0008795969587959695879599279F938F937F
:1003C00055275F934F938CE191E09F938F93CE01DC
:1003D00001967C019F938F930E949D020F931F9320
:1003E00086E291E09F938F935E0199E0A90EB11C84
:1003F000BF92AF920E949D0280914001282F082E4B
:10040000000C330B3F938F938CE291E09F938F937B
:100410006E0121E1C20ED11CDF92CF920E949D029B
:1004200061E080E00E94AC00C7010E949F0061E093
:1004300086E00E94AC00C5010E949F0061E08BE055
:100440000E94AC00C6010E949F000F931F93FF9271
:10045000EF9282E391E09F938F937E0189E1E80E12
:10046000F11CFF92EF920E949D02C7010E9455016C
:100470009FEF25EA8EE0915020408040E1F700C0D8
:1004800000000FB6F894DEBF0FBECDBF57CF1F924E
:100490000F920FB60F9211248F938091C6008B326A
:1004A00051F48091400183368CF4809140018F5F3C
:1004B000809340010BC08D3249F4809140011816A1
:1004C0002CF4809140018150809340018F910F90D6
:1004D0000FBE0F901F901895A1E21A2EAA1BBB1BEE
:1004E000FD010DC0AA1FBB1FEE1FFF1FA217B30700
:1004F000E407F50720F0A21BB30BE40BF50B661F16
:10050000771F881F991F1A9469F7609570958095D9
:1005100090959B01AC01BD01CF010895A29FB00150
:10052000B39FC001A39F700D811D1124911DB29F27
:10053000700D811D1124911D0895AEE0B0E0E3EA35
:10054000F2E00C945E050D891E8986E08C831A8387
:1005500009838FEF9FE79E838D83AE01475E5F4FD8
:100560006F89788DCE0101960E94BF02EF81F885D8
:10057000E00FF11F10822E96E4E00C947A05ABE0B8
:10058000B0E0E5ECF2E00C9450056C017B018A01CF
:10059000FC0117821682838181FFCCC1CE010196B6
:1005A0003C01F6019381F70193FD859193FF8191C1
:1005B0007F01882309F4BAC1853239F493FD85910E
:1005C00093FF81917F01853229F4B60190E00E946A
:1005D000B604E7CF912C212C312CFFE1F315D8F094
:1005E0008B3279F038F4803279F08332A1F4232D04
:1005F00020611DC08D3261F0803369F4232D2160AC
:1006000016C0832D8260382EE32DE4603E2E2AC072
:10061000F32DF8601DC037FC2DC020ED280F2A30C7
:1006200040F08E32B9F436FC81C1232D2064322E85
:1006300019C036FE06C08AE0989E200D1124922E25
:1006400011C0EAE02E9E200D1124222EF32DF0621F
:100650003F2E08C08C3621F4832D8068382E02C0CE
:10066000883641F4F70193FD859193FF81917F01D5
:100670008111B3CF982F9F7D9554933028F40C5F50
:100680001F4F9FE399830DC0833631F0833771F09C
:10069000833509F059C021C0F801808189830E5F3C
:1006A0001F4F88248394912C530113C02801F2E03A
:1006B0004F0E511CF801A080B18036FE03C0692D99
:1006C00070E002C06FEF7FEFC5010E94AB044C01E8
:1006D0008201F32DFF773F2E16C0280122E0420E43
:1006E000511CF801A080B18036FE03C0692D70E076
:1006F00002C06FEF7FEFC5010E94A0044C01F32DF3
:10070000F0683F2E820133FC1BC0822D90E08816DA
:100710009906B0F4B60180E290E00E94B6042A94F3
:10072000F4CFF50137FC859137FE81915F01B60169
:1007300090E00E94B60421102A9421E0821A9108C8
:100740008114910471F7E8C0843611F0893641F5BF
:10075000F80137FE07C060817181828193810C5F4F
:100760001F4F08C060817181072E000C880B990B08
:100770000E5F1F4FF32DFF763F2E97FF09C0909518
:100780008095709561957F4F8F4F9F4FF0683F2EFA
:100790002AE030E0A3010E94F204882E861845C0AA
:1007A000853731F4232D2F7EB22E2AE030E025C08C
:1007B000932D997FB92E8F36C1F018F4883579F0D2
:1007C000B5C0803719F0883721F0B0C0E92FE0615B
:1007D000BE2EB4FE0DC0FB2DF460BF2E09C034FE4A
:1007E0000AC0292F2660B22E06C028E030E005C0DE
:1007F00020E130E002C020E132E0F801B7FE07C09E
:1008000060817181828193810C5F1F4F06C060817E
:10081000718180E090E00E5F1F4FA3010E94F204FF
:10082000882E8618FB2DFF773F2E36FE0DC0232D18
:100830002E7FA22E891458F434FE0BC032FC09C05E
:10084000832D8E7EA82E05C0B82CA32C03C0B82CF7
:1008500001C0B92CA4FE0FC0FE01E80DF11D80817E
:10086000803321F49A2D997EA92E09C0A2FE06C0DC
:10087000B394B39404C08A2D867809F0B394A3FC92
:1008800011C0A0FE06C0B21488F4280C922C9B184C
:100890000EC0B21460F4B60180E290E00E94B6048B
:1008A000B394F7CFB21418F42B1802C0982C212C53
:1008B000A4FE10C0B60180E390E00E94B604A2FE40
:1008C00017C0A1FC03C088E790E002C088E590E073
:1008D000B6010CC08A2D867859F0A1FE02C08BE2C9
:1008E00001C080E2A7FC8DE2B60190E00E94B60450
:1008F000891438F4B60180E390E00E94B6049A941B
:10090000F7CF8A94F301E80DF11D8081B60190E0E4
:100910000E94B6048110F5CF222009F442CEB60120
:1009200080E290E00E94B6042A94F6CFF601868118
:10093000978102C08FEF9FEF2B96E2E10C946C053C
:10094000FC010590615070400110D8F7809590959A
:100950008E0F9F1F0895FC0161507040019001109F
:10096000D8F7809590958E0F9F1F08950F931F9332
:10097000CF93DF93FB01238121FD03C08FEF9FEF16
:100980002CC022FF16C04681578124813581421731
:10099000530744F4A081B1819D012F5F3F4F318304
:1009A00020838C93268137812F5F3F4F37832683A7
:1009B00014C08B01EC01FB010084F185E02D099549
:1009C000892BE1F6D80116968D919C911797019687
:1009D00017969C938E931697CE01DF91CF911F911E
:1009E0000F910895FA01AA27283051F1203181F1A1
:1009F000E8946F936E7F6E5F7F4F8F4F9F4FAF4F27
:100A0000B1E03ED0B4E03CD0670F781F891F9A1F39
:100A1000A11D680F791F8A1F911DA11D6A0F711DED
:100A2000811D911DA11D20D009F468943F912AE0F9
:100A3000269F11243019305D3193DEF6CF010895E1
:100A4000462F4770405D4193B3E00FD0C9F7F6CF12
:100A5000462F4F70405D4A3318F0495D31FD4052DA
:100A6000419302D0A9F7EACFB4E0A6959795879570
:100A700077956795BA95C9F700976105710508954F
:100A80009B01AC010A2E06945795479537952795FB
:100A9000BA95C9F7620F731F841F951FA01D089593
:100AA0002F923F924F925F926F927F928F929F927E
:100AB000AF92BF92CF92DF92EF92FF920F931F936C
:100AC000CF93DF93CDB7DEB7CA1BDB0B0FB6F8941D
:100AD000DEBF0FBECDBF09942A88398848885F845D
:100AE0006E847D848C849B84AA84B984C884DF80CE
:100AF000EE80FD800C811B81AA81B981CE0FD11DB2
:100B00000FB6F894DEBF0FBECDBFED010895F89487
:020B1000FFCF15
:100B12004C616232202D204C43442F5541525400E7
:100B220053313A0053323A0053333A0025752E2599
:100B3200303275562000252D34752000252D346461
:100B4200200053313A25732053323A25750D0A009D
:00000001FF
